{
  "contractName": "Posts",
  "abi": [
    {
      "inputs": [],
      "stateMutability": "nonpayable",
      "type": "constructor"
    },
    {
      "anonymous": false,
      "inputs": [
        {
          "indexed": false,
          "internalType": "address",
          "name": "creator",
          "type": "address"
        },
        {
          "indexed": false,
          "internalType": "uint256",
          "name": "id",
          "type": "uint256"
        },
        {
          "indexed": false,
          "internalType": "string",
          "name": "text",
          "type": "string"
        },
        {
          "indexed": false,
          "internalType": "string",
          "name": "img",
          "type": "string"
        },
        {
          "indexed": false,
          "internalType": "uint256",
          "name": "tipGenerated",
          "type": "uint256"
        }
      ],
      "name": "postCreated",
      "type": "event"
    },
    {
      "anonymous": false,
      "inputs": [
        {
          "indexed": false,
          "internalType": "uint256",
          "name": "id",
          "type": "uint256"
        },
        {
          "indexed": false,
          "internalType": "uint256",
          "name": "amount",
          "type": "uint256"
        }
      ],
      "name": "postTipped",
      "type": "event"
    },
    {
      "inputs": [],
      "name": "owner",
      "outputs": [
        {
          "internalType": "address",
          "name": "",
          "type": "address"
        }
      ],
      "stateMutability": "view",
      "type": "function",
      "constant": true
    },
    {
      "inputs": [
        {
          "internalType": "string",
          "name": "_txt",
          "type": "string"
        },
        {
          "internalType": "string",
          "name": "_img",
          "type": "string"
        }
      ],
      "name": "createPost",
      "outputs": [],
      "stateMutability": "nonpayable",
      "type": "function"
    },
    {
      "inputs": [
        {
          "internalType": "uint256",
          "name": "id",
          "type": "uint256"
        }
      ],
      "name": "getPost",
      "outputs": [
        {
          "components": [
            {
              "internalType": "address payable",
              "name": "creator",
              "type": "address"
            },
            {
              "internalType": "uint256",
              "name": "id",
              "type": "uint256"
            },
            {
              "internalType": "string",
              "name": "text",
              "type": "string"
            },
            {
              "internalType": "string",
              "name": "img",
              "type": "string"
            },
            {
              "internalType": "uint256",
              "name": "tipGenerated",
              "type": "uint256"
            }
          ],
          "internalType": "struct Posts.Post",
          "name": "",
          "type": "tuple"
        }
      ],
      "stateMutability": "view",
      "type": "function",
      "constant": true
    },
    {
      "inputs": [],
      "name": "getPostCount",
      "outputs": [
        {
          "internalType": "uint256",
          "name": "",
          "type": "uint256"
        }
      ],
      "stateMutability": "view",
      "type": "function",
      "constant": true
    },
    {
      "inputs": [
        {
          "internalType": "uint256",
          "name": "id",
          "type": "uint256"
        }
      ],
      "name": "tip",
      "outputs": [],
      "stateMutability": "payable",
      "type": "function",
      "payable": true
    }
  ],
  "bytecode": "0x608060405234801561001057600080fd5b506000600181905550336000806101000a81548173ffffffffffffffffffffffffffffffffffffffff021916908373ffffffffffffffffffffffffffffffffffffffff160217905550610d9e806100686000396000f3fe60806040526004361061004a5760003560e01c8063392338f51461004f57806340731c24146100785780638da5cb5b146100b5578063bcc95407146100e0578063e8b69bc31461010b575b600080fd5b34801561005b57600080fd5b50610076600480360381019061007191906107e7565b610127565b005b34801561008457600080fd5b5061009f600480360381019061009a9190610895565b610234565b6040516100ac9190610a17565b60405180910390f35b3480156100c157600080fd5b506100ca610446565b6040516100d79190610a5a565b60405180910390f35b3480156100ec57600080fd5b506100f561046a565b6040516101029190610a84565b60405180910390f35b61012560048036038101906101209190610895565b610474565b005b6001600081548092919061013a90610ace565b919050555060006002600060015481526020019081526020016000209050338160000160006101000a81548173ffffffffffffffffffffffffffffffffffffffff021916908373ffffffffffffffffffffffffffffffffffffffff1602179055506001548160010181905550828160020190805190602001906101be9291906105a5565b50818160030190805190602001906101d79291906105a5565b50600081600401819055507f7c6a7d5165ee4647e73878b534dc5e8da6063760540032c917c31fb7365fc74033826001015483600201846003018560040154604051610227959493929190610c1c565b60405180910390a1505050565b61023c61062b565b600154821115801561024e5750600082115b61028d576040517f08c379a000000000000000000000000000000000000000000000000000000000815260040161028490610cc9565b60405180910390fd5b6000600260008481526020019081526020016000206040518060a00160405290816000820160009054906101000a900473ffffffffffffffffffffffffffffffffffffffff1673ffffffffffffffffffffffffffffffffffffffff1673ffffffffffffffffffffffffffffffffffffffff1681526020016001820154815260200160028201805461031d90610b45565b80601f016020809104026020016040519081016040528092919081815260200182805461034990610b45565b80156103965780601f1061036b57610100808354040283529160200191610396565b820191906000526020600020905b81548152906001019060200180831161037957829003601f168201915b505050505081526020016003820180546103af90610b45565b80601f01602080910402602001604051908101604052809291908181526020018280546103db90610b45565b80156104285780601f106103fd57610100808354040283529160200191610428565b820191906000526020600020905b81548152906001019060200180831161040b57829003601f168201915b50505050508152602001600482015481525050905080915050919050565b60008054906101000a900473ffffffffffffffffffffffffffffffffffffffff1681565b6000600154905090565b60008111801561048657506001548111155b6104c5576040517f08c379a00000000000000000000000000000000000000000000000000000000081526004016104bc90610cc9565b60405180910390fd5b600060026000838152602001908152602001600020905060008160000160009054906101000a900473ffffffffffffffffffffffffffffffffffffffff1690508073ffffffffffffffffffffffffffffffffffffffff166108fc349081150290604051600060405180830381858888f1935050505015801561054b573d6000803e3d6000fd5b50348260040160008282546105609190610ce9565b925050819055507ffed09e4d56f538ee639b49fd27dfb4ea19ee058c3f88369fe4580d9da0f59ac38334604051610598929190610d3f565b60405180910390a1505050565b8280546105b190610b45565b90600052602060002090601f0160209004810192826105d3576000855561061a565b82601f106105ec57805160ff191683800117855561061a565b8280016001018555821561061a579182015b828111156106195782518255916020019190600101906105fe565b5b5090506106279190610670565b5090565b6040518060a00160405280600073ffffffffffffffffffffffffffffffffffffffff168152602001600081526020016060815260200160608152602001600081525090565b5b80821115610689576000816000905550600101610671565b5090565b6000604051905090565b600080fd5b600080fd5b600080fd5b600080fd5b6000601f19601f8301169050919050565b7f4e487b7100000000000000000000000000000000000000000000000000000000600052604160045260246000fd5b6106f4826106ab565b810181811067ffffffffffffffff82111715610713576107126106bc565b5b80604052505050565b600061072661068d565b905061073282826106eb565b919050565b600067ffffffffffffffff821115610752576107516106bc565b5b61075b826106ab565b9050602081019050919050565b82818337600083830152505050565b600061078a61078584610737565b61071c565b9050828152602081018484840111156107a6576107a56106a6565b5b6107b1848285610768565b509392505050565b600082601f8301126107ce576107cd6106a1565b5b81356107de848260208601610777565b91505092915050565b600080604083850312156107fe576107fd610697565b5b600083013567ffffffffffffffff81111561081c5761081b61069c565b5b610828858286016107b9565b925050602083013567ffffffffffffffff8111156108495761084861069c565b5b610855858286016107b9565b9150509250929050565b6000819050919050565b6108728161085f565b811461087d57600080fd5b50565b60008135905061088f81610869565b92915050565b6000602082840312156108ab576108aa610697565b5b60006108b984828501610880565b91505092915050565b600073ffffffffffffffffffffffffffffffffffffffff82169050919050565b60006108ed826108c2565b9050919050565b6108fd816108e2565b82525050565b61090c8161085f565b82525050565b600081519050919050565b600082825260208201905092915050565b60005b8381101561094c578082015181840152602081019050610931565b8381111561095b576000848401525b50505050565b600061096c82610912565b610976818561091d565b935061098681856020860161092e565b61098f816106ab565b840191505092915050565b600060a0830160008301516109b260008601826108f4565b5060208301516109c56020860182610903565b50604083015184820360408601526109dd8282610961565b915050606083015184820360608601526109f78282610961565b9150506080830151610a0c6080860182610903565b508091505092915050565b60006020820190508181036000830152610a31818461099a565b905092915050565b6000610a44826108c2565b9050919050565b610a5481610a39565b82525050565b6000602082019050610a6f6000830184610a4b565b92915050565b610a7e8161085f565b82525050565b6000602082019050610a996000830184610a75565b92915050565b7f4e487b7100000000000000000000000000000000000000000000000000000000600052601160045260246000fd5b6000610ad98261085f565b91507fffffffffffffffffffffffffffffffffffffffffffffffffffffffffffffffff8203610b0b57610b0a610a9f565b5b600182019050919050565b7f4e487b7100000000000000000000000000000000000000000000000000000000600052602260045260246000fd5b60006002820490506001821680610b5d57607f821691505b602082108103610b7057610b6f610b16565b5b50919050565b600082825260208201905092915050565b60008190508160005260206000209050919050565b60008154610ba981610b45565b610bb38186610b76565b94506001821660008114610bce5760018114610be057610c13565b60ff1983168652602086019350610c13565b610be985610b87565b60005b83811015610c0b57815481890152600182019150602081019050610bec565b808801955050505b50505092915050565b600060a082019050610c316000830188610a4b565b610c3e6020830187610a75565b8181036040830152610c508186610b9c565b90508181036060830152610c648185610b9c565b9050610c736080830184610a75565b9695505050505050565b7f696e76616c696420696400000000000000000000000000000000000000000000600082015250565b6000610cb3600a83610b76565b9150610cbe82610c7d565b602082019050919050565b60006020820190508181036000830152610ce281610ca6565b9050919050565b6000610cf48261085f565b9150610cff8361085f565b9250827fffffffffffffffffffffffffffffffffffffffffffffffffffffffffffffffff03821115610d3457610d33610a9f565b5b828201905092915050565b6000604082019050610d546000830185610a75565b610d616020830184610a75565b939250505056fea2646970667358221220f13da995a9c9a57427e931c9c5615f1633ef1eb8a20ccd2fccc0170b572daf3b64736f6c634300080d0033",
  "immutableReferences": {},
  "source": "// SPDX-License-Identifier: MIT\npragma solidity ^0.8.7;\n\n/**\n * @title Media posts\n */\ncontract Posts{\n    address public owner; //contract owner/admin\n    uint256 private postCount; //number of posts (also serves as post id)\n\n    struct Post {\n        address payable creator;\n        uint256 id;\n        string text;\n        string img;\n        uint256 tipGenerated; // amount of tip given to this post\n    }\n    mapping(uint256=>Post) posts;\n\n    event postCreated(\n        address creator,\n        uint256 id,\n        string text,\n        string img,\n        uint256 tipGenerated\n    );\n    event postTipped(uint256 id, uint256 amount);\n\n    constructor(){\n        postCount =0;\n        owner = msg.sender;\n    }\n\n     /**\n    * @notice Creates a new post on chain.\n    * @param _txt text content of post\n    * @param _img image attached to the post\n    */\n    function createPost(string memory _txt, string memory _img) public {\n        postCount++;\n        Post storage newPost = posts[postCount];\n        newPost.creator = payable(msg.sender);\n        newPost.id = postCount;\n        newPost.text = _txt;\n        newPost.img = _img;\n        newPost.tipGenerated= 0;\n        emit postCreated(msg.sender,newPost.id,newPost.text,newPost.img,newPost.tipGenerated); \n    }\n\n    // @dev returns a specific post\n    // @param id id of post (must be valid)\n    function getPost(uint256 id)public view returns(Post memory){\n        require(id <= postCount && id>0, \"invalid id\");\n        Post memory post = posts[id];\n        return post;\n    }\n\n    //@dev returns total number of posts\n    function getPostCount() public view returns(uint256){\n        return postCount;\n    }\n\n    //@dev tips the creator of a specific post\n    function tip(uint256 id)public payable{\n        require(id>0 && id<=postCount,\"invalid id\");\n        Post storage _post = posts[id];\n        address payable creator  = _post.creator;\n        creator.transfer(msg.value);\n        _post.tipGenerated += msg.value;\n        emit postTipped(id,msg.value);\n    }\n}",
  "sourcePath": "/home/ritik/myfiles/code/solidity/cyber-block/contracts/Posts.sol",
  "compiler": {
    "name": "solc",
    "version": "0.8.13+commit.abaa5c0e.Emscripten.clang"
  },
  "schemaVersion": "3.4.5",
  "updatedAt": "2022-05-10T12:35:25.252Z",
  "networkType": "ethereum",
  "devdoc": {
    "kind": "dev",
    "methods": {
      "createPost(string,string)": {
        "params": {
          "_img": "image attached to the post",
          "_txt": "text content of post"
        }
      }
    },
    "title": "Media posts",
    "version": 1
  },
  "userdoc": {
    "kind": "user",
    "methods": {
      "createPost(string,string)": {
        "notice": "Creates a new post on chain."
      }
    },
    "version": 1
  }
}